S012000070726F6A656374335F302E7372656359
S11300000C942A000C94B5000C943C000C943C0015
S11300100C943C000C943C000C943C000C943C006C
S11300200C943C000C943C000C943C000C943C005C
S11300300C943C000C943C000C943C000C943C004C
S11300400C943C000C943C000C943C000C943C003C
S11300500C943C0011241FBECFE5D8E0DEBFCDBF19
S113006020E0A0E6B0E001C01D92A236B207E1F79D
S11300700E9450010C9457010C94000008B604FE31
S1130080FDCF1DBC1CBC88B7806188BF80E090E0B8
S1130090089580916000813081F028F08230B9F0B9
S11300A08430F9F027C084E08BBB81E088BB809169
S11300B060008F5F8093600023C082E08BBB81E08F
S11300C088BB809160008F5F8093600019C081E0DD
S11300D08BBB84E088BB809160008F5F809360005D
S11300E00FC01BBA81E088BB809160008F5F809352
S11300F0600006C082E08BBB81E088BB1092600088
S11301000E943E00089580916000813049F028F0FB
S1130110823049F0843051F00BC084E08BBB0AC0BC
S113012082E08BBB07C081E08BBB04C01BBA02C05A
S113013082E08BBB0E943E00089580916100813073
S113014049F028F0823049F0843051F00BC084E04B
S113015088BB089582E088BB089581E088BB089538
S113016018BA089582E088BB08951F920F920FB6C3
S11301700F921124FF920F931F932F933F934F934A
S11301805F936F937F938F939F93AF93BF93CF931B
S1130190DF93EF93FF9380916000823019F4109203
S11301A061004EC0823008F04BC0C2E0C0936100D1
S11301B00E9483000E949D000E943E00C8BBCBBBEE
S11301C00E943E0018BA1BBA0E943E00C8BBCBBBBB
S11301D00E943E0018BA1BBA0E943E0010926100B1
S11301E0C09360000E9483000E949D000E943E0014
S11301F00E943E000E943E0016E018BBD3E0DBBB29
S11302000E943E006894FF24F2F8F8BA01E00BBBA8
S11302100E943E0018BBDBBB0E943E00F8BA0BBB39
S11302200E943E0018BBDBBB0E943E000E943E00C1
S113023010926000C09361000E9483000E949D00A0
S1130240FF91EF91DF91CF91BF91AF919F918F91EA
S11302507F916F915F914F913F912F911F910F91DA
S1130260FF900F900FBE0F901F9018951092600092
S1130270109261008FEF8ABB87BB11BA82BB80E406
S11302808BBF83E085BF85E08EBD8EEE9FE79BBD6F
S11302908ABD1DBC1CBC789408950E944900FDCF02
S11302A00E9436010E944D0180E090E00895F89488
S10502B0FFCF7A
S9030000FC
